:100000000C9470000C9498000C9498000C940211BD
:100010000C9402110C9402110C9498000C9428106A
:100020000C9498000C9498000C9498000C949800F0
:100030000C9498000C9498000C9498000C949800E0
:100040000C94DE0F0C9498000C94D0100C94AA1011
:100050000C9498000C9498000C9498000C949800C0
:100060000C94BF0E0C9498002E0053746172746946
:100070006E672E0052656164792E2E2E2E2E2E2E46
:100080000000000000240027002A000000000800F3
:10009000020100000304070000000000000000024D
:1000A00000000000230026002900000000002500B9
:1000B00028002B00040404040404040402020202C5
:1000C000020203030303030301020408102040801B
:1000D0000102040810200102040810207A11321CC9
:1000E00011241FBECFEFD8E0DEBFCDBF13E0A0E0EC
:1000F000B1E0E4E1F9E402C005900D92A037B10748
:10010000D9F726E0A0E7B3E001C01D92AF35B207F2
:10011000E1F710E0CFE6D0E004C02197FE010E9495
:100120009E1ECE36D107C9F70E94BD120C947D24C5
:100130000C940000E6E5F5E030E020E0B22FA0816D
:10014000AA2349F02F5F3F4F71962A303105B1F74E
:10015000BFEF8B2F0895A1E1A29FF001A39FF00DA7
:100160001124EA5AFA4F21E020836183728383834A
:1001700094832FEF3FEF36832583528741879FB7C4
:10018000F8944091890450918A0460918B04709195
:100190008C049FBF4387548765877687108A1786AC
:1001A000D8CF20913D04260F3327331F213231054C
:1001B000ECF420916304FC0190E080E0243069F0CD
:1001C00082E00895A0913D042191AC01455E5B4F12
:1001D000A40FB52FB11D2C930196861798F380912B
:1001E0003D04680F60933D0480E0089581E0089528
:1001F000089508950895E091120480911104E8177C
:1002000030F4F0E0EF50FC4F808190E008958FEFE4
:100210009FEF089590911204809111042FEF3FEF0A
:10022000981748F4E92FF0E0EF50FC4F208130E0C0
:100230009F5F90931204C9010895809111049091D9
:100240001204891B990B0895CF92DF92EF92FF92CF
:100250000F931F93CF93DF937C01CB018A012091F1
:10026000F003222389F0EB016B01C40ED51ECC15DF
:10027000DD0569F06991D701ED91FC910190F08164
:10028000E02DC7010995F3CF642F0E94D100C8016A
:10029000DF91CF911F910F91FF90EF90DF90CF9062
:1002A0000895CF93DF931F92CDB7DEB76983209176
:1002B000F0032223F9F020911304203258F021E0BA
:1002C00030E0FC013383228390E080E00F90DF91E7
:1002D000CF91089580911404E82FF0E0E053FC4F93
:1002E000998190838F5F809314048093130481E03D
:1002F00090E0ECCF61E0CE0101960E94D100F7CFF3
:10030000833081F028F4813099F08230A9F008958B
:100310008730A9F08830C9F08430B1F48091800032
:100320008F7D03C0809180008F7780938000089537
:1003300084B58F7784BD089584B58F7DFBCF809180
:10034000B0008F778093B00008958091B0008F7DCA
:10035000F9CFCF93DF93282F30E0F901E557FF4F16
:100360008491F901E853FF4FD491F901EC54FF4F08
:10037000C491CC23A1F081110E948001EC2FF0E008
:10038000EE0FFF1FE056FF4FA591B491EC91ED23C6
:1003900081E090E009F480E0DF91CF91089580E062
:1003A00090E0FACF1F93CF93DF93282F30E0F9012D
:1003B000E557FF4F8491F901E853FF4FD491F901BC
:1003C000EC54FF4FC491CC23A9F0162F81110E9449
:1003D0008001EC2FF0E0EE0FFF1FE655FF4FA591D7
:1003E000B4918FB7F894EC91111108C0D095DE2329
:1003F000DC938FBFDF91CF911F910895DE2BF8CF53
:100400001092630481E0809365041092640461E0BB
:1004100082E10E94D20161E083E10E94D201E9EB16
:10042000F0E080818E7F808380818D7F808388E46F
:100430008093B80085E48093BC000895CF93DF9348
:1004400091E090931A048823B9F0C091B800D0913C
:10045000BA008091BC008A7B8093BC0060E082E19E
:100460000E94D20160E083E10E94D2010E9400025A
:10047000D093BA00C093B800DF91CF910895CF9385
:10048000DF9390E0FC01E853FF4F24918C549F4F81
:10049000FC0184918823C9F090E0880F991FFC012A
:1004A000EF57FF4FA591B491FC01E655FF4FC59161
:1004B000D49161110DC09FB7F8948C91209582233F
:1004C0008C938881282328839FBFDF91CF91089543
:1004D000623051F49FB7F8943C91822F809583232A
:1004E0008C93E8812E2BEFCF8FB7F894EC912E2BC5
:1004F0002C938FBFEACFCF92DF92EF92FF921F93A0
:10050000CF93DF936B017C01809120018E3051F0FD
:100510008F3FF1F0DF91CF911F91FF90EF90DF902F
:10052000CF900895EFE9F0E0C491C7FDF3CF61E00B
:100530008EE00E943F02CC2309F478C0C23009F05B
:100540009CC08091B100887F82608093B10072C0AE
:100550008EE080932001EFE9F0E0C491CF3FD1F22B
:10056000C13021F150F0C23009F43EC0C7FDD2CFF6
:1005700061E08EE00E943F02E1CF14BC15BC84B55F
:10058000826084BD85B5816085BDE2ECF0E0E491D8
:10059000F0E0EE0FFF1FE655FF4F85919491E6EDD9
:1005A000F0E0E491E0939104C0E0C1CF10928000AC
:1005B00010928100809181008860809381008091F9
:1005C0008100816080938100E2ECF0E0E491F0E052
:1005D000EE0FFF1FE655FF4F85919491E6EDF0E099
:1005E000E491E0939004A3CF1092B0001092B10078
:1005F0008091B00082608093B0008091B1008160F2
:100600008093B100E2ECF0E0E491F0E0EE0FFF1F28
:10061000E655FF4F8591949190938F0480938E04BB
:10062000E6EDF0E0E491E0938D0481CF85B5887F1D
:10063000826085BDDDED10E0A8E2B3E2A70196017E
:100640000E94FB1D28EE33E040E050E00E94451E72
:10065000C130F1F0C23081F1C1115CCFD7BD209320
:100660009A0430939B0440939C0450939D04809182
:100670006E00826080936E004DCFC13031F4809166
:100680008100887F816080938100D0EF16E0D4CF15
:100690008D2F912F9093890080938800209396044A
:1006A00030939704409398045093990480916F007D
:1006B000826080936F002ECFD093B300209392047A
:1006C0003093930440939404509395048091700068
:1006D0008260809370001ECF3FB7F8948091CC0366
:1006E0009091CD03A091CE03B091CF0326B5A89BE6
:1006F00005C02F3F19F00196A11DB11D3FBFBA2FB4
:10070000A92F982F8827BC01CD01620F711D811D73
:10071000911D42E0660F771F881F991F4A95D1F7F8
:1007200008958F929F92AF92BF92CF92DF92EF92F5
:10073000FF924B015C010E946C036B017C010E94E3
:100740006C036C197D098E099F09683E7340810511
:100750009105A8F321E0821A9108A108B10888EE5A
:10076000C80E83E0D81EE11CF11C81149104A10481
:10077000B10429F7FF90EF90DF90CF90BF90AF903A
:100780009F908F900895DB0114964D915C91159781
:100790006D917C91DC01ED91FC910280F381E02D63
:1007A0000994AF92BF92CF92DF92EF92FF920F9394
:1007B0001F93CF93DF936C017B018B01040F151FF7
:1007C000EB015E01AE18BF08C017D10759F069915F
:1007D000D601ED91FC910190F081E02DC6010995C3
:1007E000892B79F7C501DF91CF911F910F91FF9070
:1007F000EF90DF90CF90BF90AF900895FC01538DA4
:10080000448D252F30E0842F90E0821B930B5417EA
:1008100010F0CF96089501970895FC01918D828D77
:10082000981761F0A28DAE0FBF2FB11D5D968C9110
:10083000928D9F5F9F73928F90E008958FEF9FEF4F
:100840000895FC01918D828D981731F0828DE80F0B
:10085000F11D858D90E008958FEF9FEF0895FC01C5
:10086000918D228D892F90E0805C9F4F821B910992
:100870008F73992708958AEA94E00E942F0421E05B
:10088000892B09F420E0822F089580E090E0892BE5
:1008900029F00E943B0481110C9400000895FC0192
:1008A000A48DA80FB92FB11DA35ABF4F2C91848DD1
:1008B00090E001968F739927848FA689B7892C932E
:1008C000A089B1898C91837080648C93938D848D81
:1008D000981306C00288F389E02D80818F7D808384
:1008E0000895EF92FF920F931F93CF93DF93EC0144
:1008F00081E0888F9B8D8C8D98131AC0E889F989C7
:10090000808185FF15C09FB7F894EE89FF896083C9
:10091000E889F98980818370806480839FBF81E04A
:1009200090E0DF91CF911F910F91FF90EF9008958C
:10093000F62E0B8D10E00F5F1F4F0F731127E02E67
:100940008C8D8E110CC00FB607FCFACFE889F9899F
:10095000808185FFF5CFCE010E944F04F1CFEB8D52
:10096000EC0FFD2FF11DE35AFF4FF0829FB7F89473
:100970000B8FEA89FB8980818062CFCF0F931F9311
:10098000CF93DF938C01D0E0C0E0F801EC0FFD1FA6
:100990006491662341F08AEA94E00E947104892BF5
:1009A00011F02196F2CFCE01DF91CF911F910F91DF
:1009B0000895CF93DF93EC01888D8823B9F0AA893D
:1009C000BB89E889F9898C9185FD03C0808186FD0A
:1009D0000DC00FB607FCF7CF8C9185FFF2CF808159
:1009E00085FFEDCFCE010E944F04E9CFDF91CF917B
:1009F00008952091B9033091BA032817390771F48B
:100A00009091B7038091B803981741F0E091B70334
:100A1000F0E0E958FC4F808190E008958FEF9FEF60
:100A20000895EF92FF920F931F93CF93DF93DC0112
:100A30005C96ED90FC905D97E114F10479F481E00F
:100A400090E013969C938E93129790E080E0DF9154
:100A5000CF911F910F91FF90EF9008955196ED91D6
:100A6000FC91529750968C915097982F90950FB774
:100A70005E962C915E97122F127021FD6095F8946E
:100A80002081112319F1282B2083E7012197F1F709
:100A900028E0462F50E0308160FF1AC0382B3083A9
:100AA000E7012197F1F7BA0175956795215089F70C
:100AB000112381F08081892380830FBF5C968D9103
:100AC0009C910197F1F781E090E0C1CF2923DCCF21
:100AD0003923E5CF9081892BEFCF2091B903309155
:100AE000BA032817390771F48091B8032091B7032E
:100AF00090E0805C9F4F821B910960E470E00E944F
:100B00008A1E089590E080E008952091B903309105
:100B1000BA0328173907B9F49091B7038091B80345
:100B2000981789F0E091B703F0E0E958FC4F808115
:100B30002091B70330E02F5F3F4F2F73332720936F
:100B4000B70390E008958FEF9FEF0895CF92DF9263
:100B5000EF92FF920F931F93CF93DF93EC018FB728
:100B6000F894C0908904D0908A04E0908B04F090AF
:100B70008C048FBF88810E94A9019C018E8191E025
:100B8000811104C0232B21F490E002C0232BE1F754
:100B90004E855F856889798997018601041B150B4D
:100BA000260B370B49815A816B817C81041715070D
:100BB0002607370778F41986CA86DB86EC86FD8619
:100BC0008F81DF91CF911F910F91FF90EF90DF9078
:100BD000CF9008958F8188879F83292F2827298781
:100BE000981751F3CE86DF86E88AF98AE5CFCF934E
:100BF000DF93EC018D8160E0811162E088810E94C9
:100C00003F0288810E94A9019C0181E021153105E4
:100C100009F480E08F838E81882329F091E0232BD3
:100C200009F090E09F832FB7F89480918904909108
:100C30008A04A0918B04B0918C042FBF8A879B8774
:100C4000AC87BD872F81288719868E879F87A88BC1
:100C5000B98BDF91CF910895CF92DF92EF92FF92FF
:100C60000F931F93CF93DF93FC01C48121E0209366
:100C7000F003C09376031092140410921304848539
:100C8000682B8EE994E00E945101D0911304D13277
:100C900008F092C00E946C036B017C018091630498
:100CA000811165C082E08093630481E080936504D4
:100CB0008FEF8093620410928704D0938604A0ED96
:100CC000B3E0E6E6F4E080E0D81385C01092880433
:100CD00080918804CC0FC82BC09388048091640451
:100CE000813009F07CC0109264040E946C036B0197
:100CF0007C01809188048093BB00809116049091C0
:100D00001704A0911804B0911904892B8A2B8B2BFE
:100D100099F00E946C030091160410911704209121
:100D20001804309119046C197D098E099F09061762
:100D3000170728073907E0F18091BC0083FDD9CF60
:100D400085EC8093BC000E946C036B017C01809158
:100D50006304823009F445C0809162048F3F61F1E1
:100D600080916204803241F18091620425C08091BB
:100D7000160490911704A0911804B0911904892BBE
:100D80008A2B8B2B09F48ACF0E946C0300911604E6
:100D90001091170420911804309119046C197D09E1
:100DA0008E099F09061717072807390708F076CF1D
:100DB000809115040E941E021092140410921304D4
:100DC0001092F003DF91CF911F910F91FF90EF9060
:100DD000DF90CF9008959D9191938F5F75CF85EEB1
:100DE000B0CF8091160490911704A0911804B0918F
:100DF0001904892B8A2B8B2B09F4A9CF0E946C0331
:100E000000911604109117042091180430911904D0
:100E10006C197D098E099F090617170728073907DE
:100E200008F095CFC5CF089590E080E008950F9326
:100E30001F93CF938C01C62F0E942C066C2F6460E9
:100E4000C8010E942C066C2F6B7FC8010E942C06E3
:100E500083EC90E00197F1F7CF911F910F910895E6
:100E60000F931F93CF93DF938C01D62FC42F607FF6
:100E7000642B0E94170780E1D89FB00111246C2BCE
:100E8000C801DF91CF911F910F910C941707CF9359
:100E9000DF93CDB7DEB728970FB6F894DEBF0FBE4D
:100EA000CDBF98E0E7E2F1E0DE01119601900D92EE
:100EB0009A95E1F790912C06961708F46FEF262F7C
:100EC00030E0220F331F41E050E04C0F5D1F240F34
:100ED000351FF9016081680F606840E084E296E0A8
:100EE00028960FB6F894DEBF0FBECDBFDF91CF912D
:100EF0000C94300740E061E084E296E00E94300705
:100F00008BE39FE10197F1F780912D06882321F073
:100F100060E080E00C944707089541E00E943007AC
:100F200081E090E008950F931F93CF93DF938B019F
:100F300098E0899FB0011124606440E084E296E06B
:100F40000E943007E801085F1F4F699184E296E034
:100F50000E948D07C017D107C1F7DF91CF911F9174
:100F60000F91089585ED8093BC00809116049091B7
:100F70001704A0911804B09119040796A11DB11D82
:100F800023E0B695A795979587952A95D1F7209157
:100F9000BC0024FD03C01092630408954091160420
:100FA000509117046091180470911904452B462B39
:100FB000472B69F30097A105B10541F025E32A9578
:100FC000F1F700000197A109B109E1CF8091150463
:100FD0000C941E02CF93DF93EC01888199810097D6
:100FE00011F00E945520198218821D821C821B82DA
:100FF0001A82DF91CF910895FC0180819181009741
:1010000011F00C9455200895FB0101900020E9F7A0
:101010003197AF01461B570BDC01ED91FC9102802B
:10102000F381E02D09948F929F92AF92BF92EF923D
:10103000FF920F931F93CF93DF93CDB7DEB7A197A6
:101040000FB6F894DEBF0FBECDBF7C01FA01CB0115
:1010500019A2223008F42AE08E010F5D1F4F822E64
:10106000912CB12CA12CBF01A50194010E94451E19
:10107000F901CA016A300CF5605DD8016E938D01EB
:10108000232B242B252B79F790E080E0109721F07B
:10109000BD01C7010E940408A1960FB6F894DEBFF7
:1010A0000FBECDBFDF91CF911F910F91FF90EF90B9
:1010B000BF90AF909F908F900895695CDECF6AE7F4
:1010C00071E00C940408CF93DF93D0E0C0E0009768
:1010D00031F0BC018AEA94E00E940408EC018AEA3B
:1010E00094E00E945F088C0F9D1FDF91CF910895BF
:1010F000CF92DF92EF92FF92CF93DF936C01990F23
:10110000EE08FF08F7FE21C06DE28AEA94E00E9433
:101110007104EC0144275527BA014C195D096E0989
:101120007F092AE08AEA94E00E941308C80FD91FB9
:101130008AEA94E00E945F088C0F9D1FDF91CF9197
:10114000FF90EF90DF90CF9008952AE0B701A601BD
:101150008AEA94E00E941308EC01EACF0F931F93F0
:10116000CF93DF93EC010E94C3038C01CE010E9458
:101170005F08800F911FDF91CF911F910F9108950C
:101180000C940408FC0180819181009711F00C946B
:101190005A1C60E070E0CB010895CF93DF93DC012F
:1011A00014962D913C911597232B79F0FB01CD914D
:1011B000DC9160817181CE010E94C221009729F0EB
:1011C0008C1B9D0BDF91CF9108958FEF9FEFFACF8E
:1011D000FC0124813581232B39F421E0FB0180813E
:1011E000882349F020E007C0808191810E94A421DA
:1011F00021E0892BB9F7822F08950F931F93CF9386
:10120000DF93EC0188819981009759F02A813B8115
:101210002617370730F081E0DF91CF911F910F91B2
:1012200008958B016F5F7F4F0E94DE20009759F079
:10123000998388831B830A832C813D81232B59F753
:10124000FC011082E8CF80E0E7CFEF92FF920F938E
:101250001F93CF93DF936115710541F480E0DF9117
:10126000CF911F910F91FF90EF9008954115510577
:10127000B1F07B01EC010C811D81040F151FB80139
:101280000E94FD08882351F3288139818C819D813A
:10129000B701820F931F0E94AD211D830C8381E053
:1012A000DECFCF93DF93EC01FB0144815581608158
:1012B00071810E942509811103C0CE010E94EA07B5
:1012C000CE01DF91CF910895EF92FF920F931F937C
:1012D000CF93DF93EC017B018A01BA010E94FD08E4
:1012E00081110BC0CE010E94EA07CE01DF91CF91A0
:1012F0001F910F91FF90EF9008951D830C83B7010C
:10130000888199810E94AD21F0CFFB0101900020DE
:10131000E9F73197AF01461B570B0C9464090F9303
:101320001F93CF93DF93CDB7DEB762970FB6F894D4
:10133000DEBF0FBECDBF8C01CB01F8011182108240
:1013400013821282158214824AE0BE016F5F7F4FC2
:101350000E94811CBE016F5F7F4FC8010E948509FA
:1013600062960FB6F894DEBF0FBECDBFDF91CF916E
:101370001F910F9108950F931F93CF93DF93CDB7D4
:10138000DEB729970FB6F894DEBF0FBECDBF8C0134
:10139000862FF80111821082138212821582148224
:1013A0004AE0BE016F5F7F4F90E00E94A11CBE012A
:1013B0006F5F7F4FC8010E94850929960FB6F89488
:1013C000DEBF0FBECDBFDF91CF911F910F9108956A
:1013D000CF93DF9300D0CDB7DEB7FC01118210822E
:1013E00013821282158214822AE329831A82BE0193
:1013F0006F5F7F4F0E9485090F900F90DF91CF9113
:101400000895FC01118210821382128215821482C7
:10141000FB0101900020E9F73197AF01461B570B04
:101420000C946409AF92BF92CF92DF92EF92FF9239
:101430000F931F93CF93DF936C015B017A018901B6
:101440002417350720F48F2D7901042F182F6CE70E
:1014500071E0C6010E94010AD5011496CD91DC917C
:10146000EC16FD06E0F40C171D0708F4E801D501A1
:10147000ED91FC911197EC0FFD1F108110826D9181
:101480007C916E0D7F1DC60161157105A1F00E9452
:101490008509F50180819181C80FD91F1883C60184
:1014A000DF91CF911F910F91FF90EF90DF90CF9040
:1014B000BF90AF9008950E94EA07EBCFCF92DF92E2
:1014C000EF92FF92CF93DF93CDB7DEB72C970FB695
:1014D000F894DEBF0FBECDBF8091BE0381112FC037
:1014E00061E083E00E944707C090C103D090C2032F
:1014F0000D2C000CEE08FF082AE0B701A601F7FE4C
:101500000EC041E06DE284E296E00E94300744277D
:101510005527BA014C195D096E097F092AE084E25A
:1015200096E00E9413086DE771E084E296E00E9465
:10153000C0086AE872E084E296E00E94C00861E0B8
:101540008FE00E94470780917503882309F49AC0B1
:101550001092750360E084E296E00E948D0760912E
:10156000C1037091C203CE0107960E948F096FE7F5
:1015700071E0CE0101960E94010ABE01695F7F4FB2
:10158000CE0101960E945109BC0181E396E00E94C0
:10159000AE08CE0101960E94FC07CE0107960E947C
:1015A000FC076091730370917403CE0107960E944B
:1015B0008F0967E871E0CE0101960E94010ABE0121
:1015C000695F7F4FCE0101960E945109BC0181E302
:1015D00096E00E94AE08CE0101960E94FC07CE0163
:1015E00007960E94FC076091C30370E0CE01079646
:1015F0000E948F0962E971E0CE0101960E94010A02
:10160000BE01695F7F4FCE0101960E945109BC0166
:1016100081E396E00E94AE08CE0101960E94FC078D
:10162000CE0107960E94FC076091BE0370E0CE01D8
:1016300007960E948F0969E971E0CE0101960E9428
:10164000010ABE01695F7F4FCE0101960E945109D8
:10165000BC0181E396E00E94AE08CE0101960E9493
:10166000FC07CE0107960E94FC072C960FB6F89453
:10167000DEBF0FBECDBFDF91CF91FF90EF90DF9027
:10168000CF90089561E084E296E00E948D0781E0AA
:101690008093750364CFCF93DF93CDB7DEB72C97DC
:1016A0000FB6F894DEBF0FBECDBF6091C10370913D
:1016B000C203CE0107960E948F0966EA71E0CE014F
:1016C00001960E94010ABE01695F7F4FCE0101961B
:1016D0000E945109BC018AEA94E00E94C303CE0132
:1016E00001960E94FC07CE0107960E94FC076AEA59
:1016F00071E08AEA94E00E94C0088091C30364EA22
:1017000071E0882311F062EA71E08AEA94E00E94B5
:10171000C0086AEA71E08AEA94E00E94C008609119
:10172000C00370E0CE0107960E948F096CEA71E059
:10173000CE0101960E94010ABE01695F7F4FCE0172
:1017400001960E945109BC018AEA94E00E94C303F9
:10175000CE0101960E94FC07CE0107960E94FC076D
:101760006AEA71E08AEA94E00E94C0086091CA03C4
:1017700070E0CE0107960E948F096FEA71E0CE01FA
:1017800001960E94010ABE01695F7F4FCE0101965A
:101790000E945109BC018AEA94E00E94C303CE0171
:1017A00001960E94FC07CE0107960E94FC076AEA98
:1017B00071E08AEA94E00E94C0086091730370911E
:1017C0007403CE0107960E948F0968E871E0CE018C
:1017D00001960E94010ABE01695F7F4FCE0101960A
:1017E0000E945109BC018AEA94E00E94C303CE0121
:1017F00001960E94FC07CE0107960E94FC076AEA48
:1018000071E08AEA94E00E94C0086091BB03CE01B7
:1018100007960E94BB0965EB71E0CE0101960E941C
:10182000010ABE01695F7F4FCE0101960E945109F6
:10183000BC018AEA94E00E94C303CE0101960E9493
:10184000FC07CE0107960E94FC076AEA71E08AEA6B
:1018500094E00E94C0086091710370917203CE0100
:1018600007960E948F096FEB71E0CE0101960E94EE
:10187000010ABE01695F7F4FCE0101960E945109A6
:10188000BC018AEA94E00E94C303CE0101960E9443
:10189000FC07CE0107960E94FC078AEA94E00E94AA
:1018A0005F082C960FB6F894DEBF0FBECDBFDF9158
:1018B000CF9108950C94CE1D1092C00360E081E09A
:1018C00090E00C945A0C8091C1039091C2038B3527
:1018D000910544F481E08093C00361E081E090E0F1
:1018E0000C945A0C08954F925F926F927F928F9250
:1018F0009F92AF92BF92CF92DF92EF92FF920F939F
:101900001F93CF93DF9380915206882329F061E0E3
:10191000809150060E943F0260E0809150060E9434
:10192000D20183E090E00197F1F761E080915006E9
:101930000E94D20183E290E00197F1F760E080918C
:1019400050060E94D20180915206882329F060E05F
:10195000809150060E943F020E946C0360935306E0
:1019600070935406809355069093560680915106C5
:101970000E94A901892BD9F40E946C03009153069F
:10198000109154062091550630915606601B710B3C
:10199000820B930B0091570610915806209159061F
:1019A00030915A060617170728073907F8F60E94DC
:1019B0006C0360935306709354068093550690937E
:1019C0005606809151060E94A901892BD9F00E94E8
:1019D0006C030091530610915406209155063091E6
:1019E0005606601B710B820B930B009157061091EA
:1019F00058062091590630915A06061717072807EE
:101A00003907F8F60E946C03209153063091540672
:101A1000CB01821B930B68E370E00E94761EEB0102
:101A200070937403609373030091C6031091C7030E
:101A3000061717070CF44FC1C090C803D090C90314
:101A40006C157D050CF447C180914D05813071F016
:101A5000823009F441C080914D05813009F495C070
:101A6000823009F4BAC030E020E0BDC08091520558
:101A70009091530520914E0530914F0582179307A1
:101A800028F4019690935305809352058091500558
:101A900090915105880F991FE0915405F0915505DB
:101AA000E80FF91FD183C0838091500590915105B3
:101AB00020914E0530914F0521503109821793072F
:101AC00029F41092510510925005C5CF01969093BC
:101AD000510580935005BFCFE0905405F090550517
:101AE0008091520590915305892B69F481E090E033
:101AF0009093530580935205D7016D937C93F70122
:101B0000D383C283A8CF60914E0570914F0590E0BA
:101B100080E00E94CB1C20E030E048EC52E40E94C0
:101B2000111F4B015C01F70160817181072E000CD0
:101B3000880B990B0E94CD1C2B013C01A50194013F
:101B400060E070E080E89FE30E94A41E9B01AC016E
:101B5000C301B2010E94081D2B013C01BE010D2EE4
:101B6000000C880B990B0E94CD1CA50194010E94CA
:101B7000081D9B01AC01C301B2010E94A51E0E9479
:101B8000831FD7016D937C93BACFE0915205F091FA
:101B90005305A0905405B0905505D0E0C0E0F12C5D
:101BA000E12C30E020E0CE17DF07E9F0D5018D9180
:101BB0009D915D01BF010E94761E8E0D9F1D260F17
:101BC000371F7C01E817F90730F4BF010E94761E29
:101BD0007C01260F371F2196E6CFE0915405F09146
:101BE00055052081318130937203209371030D2CB0
:101BF000000CEE08FF08032E000C440B550B2C19AB
:101C00003D094E095F09ACE9BFEF0E94091E98012A
:101C1000012E000C440B550B2C193D094E095F0990
:101C20000E94DC1D2C593F4F4F4F5F4F30E03093E7
:101C3000C2032093C10380917303909174030097B2
:101C400049F0075F1F4F2091710330917203021713
:101C5000130764F4209170032F5F209370032630E4
:101C600028F021E02093BE03209370032091C1034C
:101C70003091C20337FF4AC01092C2031092C103D1
:101C80002091C1033091C2034091C4035091C50318
:101C9000421753070CF445C04091CA03411141C09B
:101CA0004091C3034423E9F10097D9F12B35310565
:101CB000C4F5DF91CF911F910F91FF90EF90DF90CE
:101CC000CF90BF90AF909F908F907F906F905F90DC
:101CD0004F900C94630C8091710390917203801764
:101CE00091072CF01092C2031092C103A4CF20914F
:101CF000C8033091C903281739070CF49CCF84E638
:101D000090E09093C2038093C10395CF25363105AF
:101D10000CF4B6CF24E630E03093C2032093C10325
:101D2000AFCF2091C8033091C90382179307A4F461
:101D3000892B91F0DF91CF911F910F91FF90EF9040
:101D4000DF90CF90BF90AF909F908F907F906F90DB
:101D50005F904F900C945C0CDF91CF911F910F918D
:101D6000FF90EF90DF90CF90BF90AF909F908F90BB
:101D70007F906F905F904F9008950C94C61D1F92B6
:101D80000F920FB60F9211242F933F934F935F93AF
:101D90006F937F938F939F93AF93BF93EF93FF9333
:101DA0008091B900887F803609F44AC0F0F5883206
:101DB00009F4A7C018F5803109F49BC0B8F4882352
:101DC00009F4F9C0883009F494C0FF91EF91BF91F4
:101DD000AF919F918F917F916F915F914F913F91C3
:101DE0002F910F900FBE0F901F901895883109F416
:101DF00088C0803251F78093620414C0803409F4A3
:101E00009DC040F48033B9F38833F9F680936204BF
:101E100085ECB0C0803509F485C0883509F496C0DA
:101E2000883499F60E94B207D0CF883909F48CC063
:101E300038F5883729F050F4883611F0803729F6C4
:101E400083E0809363041092610457C0883809F4DA
:101E50007BC0803919F0803809F0B7CF80916104D8
:101E6000803208F071C0E091610481E08E0F8093B0
:101E700061048091BB00F0E0EF5BFB4F80833DC0CD
:101E8000803B39F0E0F4803A09F479C0883A09F0EF
:101E90009CCF84E08093630410923E0410923D0432
:101EA000E0913B04F0913C04099580913D0481113F
:101EB0000FC081E080933D0410921B0409C0803C58
:101EC00009F4A6CF883C09F4A3CF883B09F07DCF65
:101ED000E0913E0481E08E0F80933E04F0E0E55EE9
:101EE000FB4F80818093BB0090913E0480913D0424
:101EF00029C0809188048093BB0085EC8093BC004E
:101F000064CF9091870480918604981758F5E091EA
:101F1000870481E08E0F80938704F0E0EA59FB4F3D
:101F20008081E9CFE091870481E08E0F8093870460
:101F30008091BB00F0E0EA59FB4F808390918704C9
:101F4000809186049817C8F285E8D8CFE09187047D
:101F500081E08E0F809387048091BB00F0E0EA5906
:101F6000FB4F80838091650481115CCF81E0809379
:101F7000640484EA8093BC001092630426CF85EC4D
:101F80008093BC001092630480916104803230F42D
:101F9000E0916104F0E0EF5BFB4F1082609161041F
:101FA00070E0E0913F04F091400481E494E00995F1
:101FB000109261040ACF1092620434CF1F920F92E4
:101FC0000FB60F9211242F933F938F939F93AF934C
:101FD000BF938091890490918A04A0918B04B09161
:101FE0008C043091CB0323E0230F2D3758F5019655
:101FF000A11DB11D2093CB038093890490938A0483
:10200000A0938B04B0938C048091CC039091CD036A
:10201000A091CE03B091CF030196A11DB11D809375
:10202000CC039093CD03A093CE03B093CF03BF9185
:10203000AF919F918F913F912F910F900FBE0F9075
:102040001F90189526E8230F0296A11DB11DD2CF2F
:102050001F920F920FB60F9211242F933F934F931D
:102060005F936F937F938F939F93AF93BF93EF9300
:10207000FF938091920490919304A0919404B09165
:102080009504892B8A2B8B2BD1F190918D04E091B3
:102090008E04F0918F04808189278083809192043F
:1020A00090919304A0919404B09195041816190688
:1020B0001A061B069CF48091920490919304A091BF
:1020C0009404B09195040197A109B10980939204F9
:1020D00090939304A0939404B0939504FF91EF918F
:1020E000BF91AF919F918F917F916F915F914F9130
:1020F0003F912F910F900FBE0F901F9018958091D8
:102100002001EFE9F0E0E4919FEF90932001E130AE
:1021100051F030F0E23069F060E00E94D201DECF91
:1021200010926E00F9CF90916F009D7F90936F0099
:10213000F3CF909170009D7F9093700091E0909309
:10214000B0009091B100987F94609093B10010928C
:10215000B300E2CF1F920F920FB60F9211242F936C
:102160003F934F935F936F937F938F939F93AF931F
:10217000BF93EF93FF938AEA94E00E944F04FF918C
:10218000EF91BF91AF919F918F917F916F915F91EF
:102190004F913F912F910F900FBE0F901F90189568
:1021A0001F920F920FB60F9211242F938F939F932C
:1021B000EF93FF93E091BA04F091BB048081E0912A
:1021C000C004F091C10482FD1BC090818091C304C2
:1021D0008F5F8F732091C404821741F0E091C30494
:1021E000F0E0E655FB4F958F8093C304FF91EF918C
:1021F0009F918F912F910F900FBE0F901F90189568
:102200008081F4CF1F920F920FB60F9211242F935B
:102210003F934F935F936F937F938F939F93AF936E
:10222000BF93EF93FF93E091B903F091BA03309716
:1022300049F0A685B7858585968D91FF14C09C9140
:102240008923A1F4FF91EF91BF91AF919F918F915D
:102250007F916F915F914F913F912F910F900FBEA2
:102260000F901F9018959C91892361F7A389B489D9
:102270009C918589809589238C938689978901977C
:10228000F1F7608D718DA685B785558538E020E022
:10229000CB010197F1F7822F90E095958795282F34
:1022A0004C91452309F02068315091F7868D81FDCE
:1022B00020958091B80390E001968F739927309113
:1022C000B703381799F0A091B803B0E0A958BC4FF4
:1022D0002C938093B803828D938D0197F1F7A38996
:1022E000B4898C919589892B8C93ACCF868D816034
:1022F000868FF1CFCF92DF92EF92FF921092A104DE
:102300001092A00428EEC22E23E0D22EE12CF12C54
:10231000C092A204D092A304E092A404F092A50477
:102320008CE391E090939F0480939E041092AD04FF
:102330001092AC04C092AE04D092AF04E092B0040C
:10234000F092B1048EE491E09093AB048093AA04E0
:1023500085EC90E09093B7048093B60484EC90E011
:102360009093B9048093B80480EC90E09093BB0400
:102370008093BA0481EC90E09093BD048093BC04F8
:1023800082EC90E09093BF048093BE0486EC90E0D2
:102390009093C1048093C0041092C3041092C404AB
:1023A0001092C5041092C60489E0809350068AE01A
:1023B000809351061092520661E089E00E943F022C
:1023C00060E0809151060E943F0280E29EE4A0E01E
:1023D000B0E08093570690935806A0935906B093A7
:1023E0005A061092340610923306C0923506D092E7
:1023F0003606E0923706F09238068CE691E090932C
:1024000032068093310610924806109247061092C9
:102410004A061092490610924C0610924B061092F2
:102420004E0610924D0660914F066E7F6D7F609351
:102430004F066695617081E0682783E00E94D201B3
:1024400061E083E00E943F02EBECF0E0E491E09376
:102450004106E7EBF0E0E491F0E0EE0FFF1FE655F8
:10246000FF4F85919491909343068093420660E0DC
:1024700082E00E943F0280914F0681FD04C061E02E
:1024800082E00E94D20182E080933D06EAECF0E017
:10249000E491E0933E06E6EBF0E0E491F0E0EE0F2D
:1024A000FF1FE056FF4F2591349130934006209353
:1024B0003F06109227061092260620E631E0309360
:1024C00025062093240610922D0697E29093280665
:1024D00090E190932E0680932F061092300681E1B2
:1024E0008093120649E150E060E070E040931306EB
:1024F00050931406609315067093160681E080933E
:102500001706809318069093000640930106509397
:102510000206609303067093040680930506809379
:1025200006061092560510926705109278051092D3
:10253000890510929A051092AB051092BC05109275
:10254000CD051092DE051092EF058AE090E09093A1
:102550004F0580934E051092510510925005109230
:102560005305109252056CE771E087E495E0FF9007
:10257000EF90DF90CF900C94010ACF93DF93CDB70B
:10258000DEB7E6970FB6F894DEBF0FBECDBF7894E6
:1025900084B5826084BD84B5816084BD85B5826068
:1025A00085BD85B5816085BD80916E008160809319
:1025B0006E00109281008091810082608093810082
:1025C0008091810081608093810080918000816092
:1025D000809380008091B10084608093B1008091ED
:1025E000B00081608093B00080917A008460809315
:1025F0007A0080917A00826080937A0080917A00DC
:10260000816080937A0080917A00806880937A005C
:102610001092C100E091BA04F091BB0482E0808383
:10262000E091B604F091B7041082E091B804F09103
:10263000B9048FEC80831092C204E091BE04F09143
:10264000BF0486E08083E091BC04F091BD048081EA
:1026500080618083E091BC04F091BD04808188603A
:102660008083E091BC04F091BD0480818068808308
:10267000E091BC04F091BD0480818F7D8083109235
:102680004C0610924B0610924A0610924906109280
:102690004806109247068DE991E090934E0680938C
:1026A0004D0690913D06963108F047C02DEB30E085
:1026B00030934806209347062BE931E030934A06D1
:1026C000209349062CE231E030934C0620934B06D0
:1026D0002091680084E0983048F031E09E3008F4A2
:1026E00030E081E001C0880F3A95EAF7822B8093B1
:1026F00068002DE630E0983050F02BE630E09E3058
:1027000030F02CE630E0963110F030E020E03093ED
:10271000450620934406292F30E0983008F080C108
:1027200081E001C0880F9A95EAF780934606809170
:102730004D0690914E060197F1F780914B069091CE
:102740004C06892B49F1E091B903F091BA0326E0D8
:10275000E133F20709F1309739F0A389B4899C91EC
:102760008589809589238C9380914F068E7F8093F5
:102770004F061092B8031092B70381E396E090934E
:10278000BA038093B903E0914406F0914506808135
:1027900090914606892B808382E090E00E94BD0ED6
:1027A0008B3F28F068E782E090E00E945A0C83E0BB
:1027B00090E00E94BD0E182F82E090E00E94BD0EB6
:1027C000811728F464E183E090E00E945A0C85E0D0
:1027D00090E00E94BD0E823028F060E085E090E03D
:1027E0000E945A0C84E090E00E94BD0E8451833315
:1027F00028F064E184E090E00E945A0C86E090E0CA
:102800000E94BD0E823028F060E086E090E00E94D9
:102810005A0C84E090E00E94BD0E90E09093C503B6
:102820008093C40385E090E00E94BD0E182F81E0E4
:10283000111101C080E08093CA0382E090E00E9401
:10284000BD0E90E09093C7038093C60381E090E0B3
:102850000E94BD0E91E0811101C090E09093C003F1
:1028600083E090E00E94BD0E90E09093C9038093B6
:10287000C80386E090E00E94BD0E91E0811101C086
:1028800090E09093BF0382E196E00E94F70580E01C
:1028900096E00E94F70561E08CE00E943F0261E053
:1028A0008BE00E943F0261E08FE00E943F0261E006
:1028B0008DE00E943F021111C0C080E10E94A90179
:1028C000892B09F0BAC081E08093C30310921204EF
:1028D0001092110410921404109213040E9400022A
:1028E00088EF90E090933C0480933B0489EF90E064
:1028F0009093400480933F041092290680912F0604
:10290000823018F098E09093290680932C0662E3B9
:1029100070E080E090E00E9491036091300684E2D4
:1029200096E00E942C0668EE73E080E090E00E9442
:10293000910360E384E296E00E9417070BE416E43B
:10294000C8010197F1F760E384E296E00E9417075F
:10295000C8010197F1F760E384E296E00E9417074F
:1029600083E592E00197F1F760E284E296E00E944D
:10297000170760912906606240E084E296E00E94B9
:10298000300784E080932A0640E06CE084E296E021
:102990000E9430070E947A0712E010932B0640E055
:1029A00066E084E296E00E94300740E062E084E264
:1029B00096E00E9430078BE39FE10197F1F788E0F2
:1029C0008093300660E084E296E00E942C0668E185
:1029D00071E080E00E94930760E171E081E00E9475
:1029E000930768E071E082E00E94930760E071E085
:1029F00083E00E94930762E085E00E943F0262E06C
:102A000086E00E943F0262E087E00E943F0285E08C
:102A10000E94A901892BA1F481E08093BB0318C017
:102A20009E3040F42850310981E001C0880F2A957A
:102A3000EAF77BCE2E503109F7CF1092C30346CF71
:102A400086E00E94A901892B09F0E8C11093BB031D
:102A500084E790E00E94BE048AEA94E00E945F0846
:102A600060EE71E08E010F5F1F4FC8010E94010AE6
:102A70007E0181E1E80EF11C65EE71E0C7010E9464
:102A8000010AB801C7010E945109BC018AEA94E019
:102A90000E94AE08C7010E94FC07C8010E94FC0703
:102AA0006AEE71E0C8010E94010A63EF71E0C7019C
:102AB0000E94010A6FEF71E0CE014F960E94010A59
:102AC000B701CE014F960E9451096C0143E050E0DE
:102AD00064E072E00E942509811103C0C6010E94D2
:102AE000EA07B801C6010E945109BC018AEA94E0D4
:102AF0000E94AE08CE014F960E94FC07C7010E94BB
:102B0000FC07C8010E94FC076091C6037091C703CF
:102B1000C8010E948F0968E072E0C7010E94010AA3
:102B2000B801C7010E945109BC018AEA94E00E94E1
:102B3000AE08C7010E94FC07C8010E94FC07609113
:102B4000C8037091C903C8010E948F0966E172E051
:102B5000C7010E94010AB801C7010E945109BC01C6
:102B60008AEA94E00E94AE08C7010E94FC07C801EF
:102B70000E94FC076091C4037091C503C8010E94C4
:102B80008F0964E272E0C7010E94010AB801C7011F
:102B90000E945109BC018AEA94E00E94AE08C70174
:102BA0000E94FC07C8010E94FC0785E090E00E949B
:102BB000BD0E682FC8010E94BB096FE272E0C70119
:102BC0000E94010AB801C7010E945109BC018AEAAA
:102BD00094E00E94AE08C7010E94FC07C8010E9451
:102BE000FC0781E090E00E94BD0E682FC8010E94A2
:102BF000BB096BE372E0C7010E94010AB801C7017B
:102C00000E945109BC018AEA94E00E94AE08C70103
:102C10000E94FC07C8010E94FC076091C30370E09A
:102C2000C8010E948F0968E472E0C7010E94010A8E
:102C3000B801C7010E945109BC018AEA94E00E94D0
:102C4000AE08C7010E94FC07C8010E94FC078AE683
:102C500090E00E94BE040E947A0760E08BE00E9430
:102C6000470760EE71E0C8010E94010A6FE472E05C
:102C7000C7010E94010AB801C7010E945109BC01A5
:102C800084E296E00E94C303C7010E94FC07C801CA
:102C90000E94FC0761E080E00E94470763EF71E05B
:102CA00084E296E00E94C0083FE2A32E31E0B32EFA
:102CB000D12C60E08D2D0E944707D5016D915D01FB
:102CC00041E084E296E00E94300766E970E080E02F
:102CD00090E00E947B028FE00E94A90161E0892BB5
:102CE00009F060E08FE00E94D2018DE00E94A9010E
:102CF00061E0892B09F060E08DE00E94D20188E656
:102D000090E00E94BE046CE271E080E090E00E94DE
:102D10009103D394B8E0DB12CCCF8AEA94E00E940E
:102D20005F0864EF71E080E090E00E94910381E52C
:102D300092E09F938F9385E592E09F938F93FF920C
:102D4000EF920E94DC218091C5038F938091C40390
:102D50008F938091C9038F938091C8038F93809143
:102D6000C7038F938091C6038F938BE592E09F9367
:102D70008F931F930F930E94DC210E947A07B70163
:102D800084E296E00E94C00861E080E00E9447076C
:102D9000B80184E296E00E94C00860E08EE00E94E4
:102DA00047076AE672E084E296E00E94C00860E0AD
:102DB0008FE00E9447074091BB0350E070E060E065
:102DC0002AE084E296E00E9413080FB6F894DEBF72
:102DD0000FBECDBF85E00E94A901019739F586E0BD
:102DE0000E94A901019711F587E00E94A9010197AE
:102DF000E9F460E080E00E9447076CE672E084E25C
:102E000096E00E94C00861E080E00E9447076DE7FD
:102E100072E084E296E00E94C008DCCF87E00E9466
:102E2000A901892B09F014CE83E0F7CD60ED77E09E
:102E300080E090E00E9491030E947A0760E08FE0BA
:102E40000E94D2018091C003882309F4D7C08091E9
:102E5000CA038111D3C08091C303882309F4CEC073
:102E60008EE892E00E9463081092BF030E94630CF8
:102E700043E75CE064E670E080E090E00E949A0046
:102E80004EE55AE064EF71E080E090E00E949A0025
:102E90004BE45BE068EE73E080E090E00E949A0013
:102EA0006091C8037091C903C8010E948F09C701CE
:102EB0000E94E8096FE972E0CE014F960E94010A74
:102EC000B701CE014F960E945109B8010E945109E5
:102ED000BC0181E396E00E94AE08CE014F960E94AD
:102EE000FC07C7010E94FC07C8010E94FC07609113
:102EF000C6037091C703C8010E948F09C7010E94D1
:102F0000E8096CEA72E0CE014F960E94010AB7010F
:102F1000CE014F960E945109B8010E945109BC018F
:102F200081E396E00E94AE08CE014F960E94FC0716
:102F3000C7010E94FC07C8010E94FC076091C403FE
:102F40007091C503C8010E948F09C7010E94E8095A
:102F500069EB72E0CE014F960E94010AB701CE01E3
:102F60004F960E945109B8010E945109BC0181E3AA
:102F700096E00E94AE08CE014F960E94FC07C70162
:102F80000E94FC07C8010E94FC076091C00370E02A
:102F9000C8010E948F0962EC72E0C7010E94010A19
:102FA000B801C7010E945109BC0181E396E00E946B
:102FB000AE08C7010E94FC07C8010E94FC0781E01F
:102FC00080934D0582E390E090934F0580934E05EA
:102FD00084E690E00E94B91F8093540590935505B4
:102FE000FC01209152053091530590E080E082175A
:102FF000930739F0119211920196F9CF0E945C0C5F
:1030000037CF10925105109250051092530510922F
:10301000520520E0222E26E0322E8FB7F894409001
:10302000890450908A0460908B0470908C048FBF48
:1030300096E5C92E95E0D92ED6018C918823B1F161
:103040001B964D915D916D917C911E9753014201AC
:10305000841A950AA60AB70A11964D915D916D9151
:103060007C91149784169506A606B70680F08130E9
:1030700009F492C0823009F494C0F6014386548664
:1030800065867686878590890196908B8787D6019D
:1030900015968D919C91169797FD08C01F962D91BE
:1030A0003C915097281739070CF01C92B1E1CB0ED8
:1030B000D11C2C143D0409F0BFCF82E196E00E94A0
:1030C000A60580E096E00E94A60560E080E00E94F0
:1030D000470769EC72E084E296E00E94C00860E075
:1030E00085E00E9447078091C00366EC71E0811182
:1030F00002C06AEC71E084E296E00E94C00860E0E1
:103100008AE00E9447078091C3036EEC71E0811151
:1031100002C065ED71E084E296E00E94C00861E0C3
:1031200080E00E94470766EA71E084E296E00E9430
:10313000C008809119068823E9F080911B06882336
:1031400009F444C08091C0038823A1F02091C103F9
:103150003091C2038091C4039091C50328173907A9
:1031600074F11092CA0360E085E090E00E945A0C6E
:103170000E945C0C8091090690910706992309F43E
:1031800025C2882309F425C28091CA03811121C276
:1031900081E08093C3031DC21996ED91FC910995BE
:1031A0006CCF61E0F6018085811160E0D601189650
:1031B0006C93189717968C910E94D2015ECF81E094
:1031C0008093CA031092C30361E0CECF80911C06A6
:1031D00090911D06A0911E06B0911F0640912006F9
:1031E000509121066091220670912306841B950B55
:1031F000A60BB70B803D9740A105B10508F4BACFE7
:103200001092CA031092BC031092BE0360E085E0E6
:1032100090E00E945A0C0E94630C8091C3038111BC
:10322000A9CF80910706882309F4CEC181E080935D
:10323000C303A0CF61E08CE00E94D2016CE271E098
:1032400080E090E00E94910360E08CE00E94D20157
:10325000F9C161E08CE00E94D2016CED75E080E084
:1032600090E0F0CF68EE73E080E090E00E947B0297
:1032700060E08FE00E94D2018091BB03823031F088
:10328000833089F0813009F0DDC1DECF61E08BE071
:103290000E94D20168EC70E080E090E00E9491030F
:1032A00060E08BE0D3CF61E08BE00E94D2016CED57
:1032B00075E080E090E0F2CF66E183E090E00E946C
:1032C0005A0C9092C9038092C803ADC266E183E0B4
:1032D00090E00E945A0CA7C26CEA72E0CE018B9675
:1032E0000E94E8088823B9F0CE0185960E94C208A2
:1032F000D62EC72E82E090E00E945A0CD092C603D0
:10330000C092C70363E073E08AEA94E00E94C008B9
:103310008D2D9C2D92C269EB72E0CE018B960E949E
:10332000E8088823D1F0CE0185960E94C208D62EE7
:10333000C72E84E090E00E945A0CC6019093C4030B
:103340008093C50364E173E08AEA94E00E94C008B8
:103350008091C4039091C50370C265E273E0CE0111
:103360008B960E94E808882309F447C0CE01859611
:103370000E94C2086B016130710519F51092CA03F1
:1033800060E085E090E00E945A0C0E94630C8091FE
:10339000C303811107C080910706882319F081E0DB
:1033A0008093C3036BE273E08AEA94E00E94C00852
:1033B0008CE992E0CD2811F48CED91E00E94630835
:1033C0003EC22091C1033091C2038091C403909109
:1033D000C5032817390754F01092CA0360E085E04E
:1033E00090E00E945A0C0E945C0CDCCF81E080933C
:1033F000CA031092C30361E0F2CF63E373E0CE012E
:103400008B960E94E8088823F9F0CE0185960E94E9
:10341000C208672B61F061E08DE00E94470763E01E
:1034200084E296E00E948D0789E393E0C7CF61E0D4
:103430008DE00E9447076CE872E084E296E00E940B
:10344000C00888E493E0BACF6AE573E0CE018B96BA
:103450000E94E808882309F4F2C187E693E00E94FD
:1034600063086091C8037091C903CE014F960E9412
:103470008F09CE0141960E94E8096FE972E0C80108
:103480000E94010ABE016F5E7F4FC8010E94510970
:10349000BE01615E7F4F0E945109BC0181E396E04D
:1034A0000E94AE08C8010E94FC07CE0141960E940E
:1034B000FC07CE014F960E94FC076091C6037091F5
:1034C000C703CE014F960E948F09CE0141960E94FC
:1034D000E8096CEA72E0C8010E94010ABE016F5E51
:1034E0007F4FC8010E945109BE01615E7F4F0E945B
:1034F0005109BC0181E396E00E94AE08C8010E9418
:10350000FC07CE0141960E94FC07CE014F960E9417
:10351000FC076091C4037091C503CE014F960E94D1
:103520008F09CE0141960E94E80969EB72E0C8015B
:103530000E94010ABE016F5E7F4FC8010E945109BF
:10354000BE01615E7F4F0E945109BC0181E396E09C
:103550000E94AE08C8010E94FC07CE0141960E945D
:10356000FC07CE014F960E94FC0769C189831A822D
:1035700041E050E0B80187E495E00E942509C0C011
:103580008091CA0361E08823A9F08EE00E9447077A
:1035900062E084E296E00E948D0780E090E0892B53
:1035A00009F43BCD0E943B04882309F436CD0E94E8
:1035B000000033CD8EE00E9447076CE872E084E2A1
:1035C00096E00E94C008E9CF80910906811110920F
:1035D000C3036091C0038091BF036817B9F170E025
:1035E000C8010E948F0962EC72E0C7010E94010AC3
:1035F000B801C7010E945109BC0181E396E00E9415
:10360000AE08C7010E94FC07C8010E94FC07809118
:10361000C003882309F426CE64EF71E080E090E0D7
:103620000E947B0261E08FE00E94D2018091BB0387
:10363000823009F4FFCD833009F40BCE61E0813094
:1036400009F403CE8FEC92E00E9463086091C003FE
:103650006093BF0386E090E00E945A0CD090BE03B6
:103660008091BD03D81609F444C00E947A076D2DDD
:1036700070E0C8010E948F0969E971E0C7010E94EA
:10368000010AB801C7010E945109BC0181E396E01B
:103690000E94AE08C7010E94FC07C8010E94FC07F7
:1036A0008091BE03882329F10E945C0C82EE92E097
:1036B0000E94630881E08093CA031092C30361E013
:1036C00085E090E00E945A0C61E083E00E94470789
:1036D0008091BC0368EE72E0811102C062EE72E07C
:1036E00084E296E00E94C00860E081E090E00E94E1
:1036F0005A0C8091BE038093BD0386E1882E912CE5
:1037000081E396E00E946D05892B09F439CF81E3AE
:1037100096E00E9485058A3009F028CF1AAA19AAD6
:103720001CAA1BAA1EAA1DAA6091470570914805F4
:103730006115710541F040914B0550914C05CE014A
:10374000C1960E94640960EF72E0C8010E94010AFC
:103750004D815E818DA99EA98417950778F089A96E
:103760009AA9009759F069817A816115710531F044
:103770000E94B421DD24D394892B09F0D12CC801F7
:103780000E94FC07DD2009F462C06DEC72E0C80104
:103790000E94010AB801CE01C1960E94CD089C0189
:1037A00050E040E0BE016F5C7F4FCE018B960E94DF
:1037B000120AC8010E94FC076DEC72E0C8010E9469
:1037C000010AB801CE01C1960E94CD082DA93EA9DB
:1037D000AC014F5F5F4FBE016F5C7F4FCE0185969E
:1037E0000E94120AC8010E94FC076FE972E0CE0134
:1037F0008B960E94E808882309F46ECDCE01859649
:103800000E94C2086B016115710509F45FCD663134
:1038100071050CF451CD83E090E00E945A0CD092D7
:10382000C903C092C80362EF72E08AEA94E00E9482
:10383000C0088091C8039091C9030E947808CE0106
:1038400085960E94FC07CE018B960E94FC07CE0154
:10385000C1960E94FC076CE771E087E495E00E9446
:1038600085094ECF87E495E00E94FC0780915405BE
:1038700090915505009711F00E9455208CE691E03B
:1038800090933206809331068091B9039091BA03E8
:103890008153964071F4E0914406F0914506908181
:1038A000809146068095892380831092BA031092F6
:1038B000B90308951F93FC0199278827BC01E89458
:1038C00011911032E9F3193010F01E30C8F31B3299
:1038D00051F01D3249F4689406C00E948C1C610F9F
:1038E000711D811D911D119110531A30B0F33EF4DA
:1038F00090958095709561957F4F8F4F9F4F1F9149
:103900000895BB274A3031F4992322F4BDE2909503
:1039100081959F4F0C94A21C592F482F372F262F8B
:10392000660F771F881F991F660F771F881F991FC3
:10393000620F731F841F951F660F771F881F991FC3
:103940000895BB27FB015527AA27880F991FAA1F97
:10395000A41710F0A41B83955051B9F7A05DAA33AA
:1039600008F0A95DA193009779F7B111B193119275
:10397000CB010C94BB1CDC01FC01672F71917723F8
:10398000E1F7329704C07C916D9370836291AE171A
:10399000BF07C8F30895E89409C097FB3EF49095DB
:1039A0008095709561957F4F8F4F9F4F9923A9F018
:1039B000F92F96E9BB279395F695879577956795A7
:1039C000B795F111F8CFFAF4BB0F11F460FF1BC0EB
:1039D0006F5F7F4F8F4F9F4F16C0882311F096E97E
:1039E00011C0772321F09EE8872F762F05C066232C
:1039F00071F096E8862F70E060E02AF09A95660FE5
:103A0000771F881FDAF7880F9695879597F908959D
:103A10000E941B1D0C948C1D0E947E1D38F00E947C
:103A2000851D20F0952311F00C94751D0C947B1DC1
:103A300011240C94C01D0E949D1D70F3959FC1F32D
:103A4000950F50E0551F629FF001729FBB27F00D4C
:103A5000B11D639FAA27F00DB11DAA1F649F6627A1
:103A6000B00DA11D661F829F2227B00DA11D621FF0
:103A7000739FB00DA11D621F839FA00D611D221FAA
:103A8000749F3327A00D611D231F849F600D211D8E
:103A9000822F762F6A2F11249F5750409AF0F1F011
:103AA00088234AF0EE0FFF1FBB1F661F771F881F7A
:103AB00091505040A9F79E3F510580F00C94751D20
:103AC0000C94C01D5F3FE4F3983ED4F38695779540
:103AD0006795B795F795E7959F5FC1F7FE2B880F20
:103AE000911D9695879597F9089597F99F6780E8B6
:103AF00070E060E008959FEF80EC089500240A9440
:103B00001616170618060906089500240A941216B8
:103B10001306140605060895092E0394000C11F4EB
:103B2000882352F0BB0F40F4BF2B11F460FF04C098
:103B30006F5F7F4F8F4F9F4F089557FD9058440FF1
:103B4000551F59F05F3F71F04795880F97FB991FFC
:103B500061F09F3F79F087950895121613061406B9
:103B6000551FF2CF4695F1DF08C016161706180646
:103B7000991FF1CF86957105610508940895E89421
:103B8000BB2766277727CB0197F90895F999FECFD0
:103B900092BD81BDF89A992780B50895262FF9998D
:103BA000FECF1FBA92BD81BD20BD0FB6F894FA9A20
:103BB000F99A0FBE01960895052E97FB1EF4009406
:103BC0000E94F31D57FD07D00E94451E07FC03D03D
:103BD0004EF40C94F31D50954095309521953F4F30
:103BE0004F4F5F4F089590958095709561957F4FE9
:103BF0008F4F9F4F08950E94671EA59F900DB49F01
:103C0000900DA49F800D911D11240895B7FF0C9471
:103C1000FB1D0E94FB1D821B930B08952F923F9268
:103C20004F925F926F927F928F929F92AF92BF92CC
:103C3000CF92DF92EF92FF920F931F93CF93DF9378
:103C4000CDB7DEB7CA1BDB0B0FB6F894DEBF0FBED5
:103C5000CDBF09942A88398848885F846E847D8422
:103C60008C849B84AA84B984C884DF80EE80FD8024
:103C70000C811B81AA81B981CE0FD11D0FB6F8949A
:103C8000DEBF0FBECDBFED010895A1E21A2EAA1B23
:103C9000BB1BFD010DC0AA1FBB1FEE1FFF1FA217FC
:103CA000B307E407F50720F0A21BB30BE40BF50BF9
:103CB000661F771F881F991F1A9469F76095709582
:103CC000809590959B01AC01BD01CF010895A29F05
:103CD000B001B39FC001A39F700D811D1124911DE0
:103CE000B29F700D811D1124911D0895AA1BBB1B4D
:103CF00051E107C0AA1FBB1FA617B70710F0A61BEC
:103D0000B70B881F991F5A95A9F780959095BC010C
:103D1000CD01089597FB072E16F4009407D077FD88
:103D200009D00E94761E07FC05D03EF4909581953F
:103D30009F4F0895709561957F4F0895EE0FFF1F77
:103D40000590F491E02D09945058BB27AA270E94B2
:103D5000BC1E0C948C1D0E947E1D38F00E94851D97
:103D600020F039F49F3F19F426F40C947B1D0EF4D7
:103D7000E095E7FB0C94751DE92F0E949D1D58F3FB
:103D8000BA17620773078407950720F079F4A6F540
:103D90000C94BF1D0EF4E0950B2EBA2FA02D0B0135
:103DA000B90190010C01CA01A0011124FF27591B80
:103DB00099F0593F50F4503E68F11A16F040A22F86
:103DC000232F342F4427585FF3CF469537952795F7
:103DD000A795F0405395C9F77EF41F16BA0B620BF6
:103DE000730B840BBAF09150A1F0FF0FBB1F661F3D
:103DF000771F881FC2F70EC0BA0F621F731F841F80
:103E000048F4879577956795B795F7959E3F08F0A5
:103E1000B0CF9395880F08F09927EE0F9795879567
:103E200008950E94251F0C948C1D0E94851D58F03A
:103E30000E947E1D40F029F45F3F29F00C94751D0F
:103E400051110C94C01D0C947B1D0E949D1D68F3A4
:103E50009923B1F3552391F3951B550BBB27AA2743
:103E600062177307840738F09F5F5F4F220F331F7D
:103E7000441FAA1FA9F335D00E2E3AF0E0E832D045
:103E800091505040E695001CCAF72BD0FE2F29D048
:103E9000660F771F881FBB1F261737074807AB071A
:103EA000B0E809F0BB0B802DBF01FF2793585F4F8F
:103EB0003AF09E3F510578F00C94751D0C94C01D8E
:103EC0005F3FE4F3983ED4F3869577956795B79571
:103ED000F7959F5FC9F7880F911D9695879597F97C
:103EE0000895E1E0660F771F881FBB1F62177307F5
:103EF0008407BA0720F0621B730B840BBA0BEE1F0A
:103F000088F7E09508950E948A1F6894B1110C9477
:103F1000C01D08950E94A51D88F09F5798F0B92FE5
:103F20009927B751B0F0E1F0660F771F881F991FEE
:103F30001AF0BA95C9F714C0B13091F00E94BF1DB4
:103F4000B1E008950C94BF1D672F782F8827B85FC4
:103F500039F0B93FCCF3869577956795B395D9F746
:103F60003EF490958095709561957F4F8F4F9F4F50
:103F700008950F931F93CF93DF938230910510F430
:103F800082E090E0E0915D06F0915E0630E020E096
:103F9000B0E0A0E0309799F42115310509F44AC04A
:103FA000281B390B24303105D8F58A819B81611596
:103FB000710589F1FB0193838283FE0111C0408169
:103FC00051810281138148175907E0F048175907BA
:103FD00099F4109761F012960C93129713961C9314
:103FE0003296CF01DF91CF911F910F9108950093E9
:103FF0005D0610935E06F4CF2115310551F042178E
:10400000530738F0A901DB019A01BD01DF01F80176
:10401000C1CFEF01F9CF90935E0680935D06CDCFBF
:10402000FE01E20FF31F81939193225031093983EE
:104030002883D7CF20915B0630915C06232B41F477
:10404000209123013091240130935C0620935B067C
:1040500020912101309122012115310541F42DB724
:104060003EB74091250150912601241B350BE0916C
:104070005B06F0915C06E217F307A0F42E1B3F0BE2
:104080002817390778F0AC014E5F5F4F24173507CA
:1040900048F04E0F5F1F50935C0640935B06819380
:1040A00091939FCFF0E0E0E09CCFCF93DF93009718
:1040B000E9F0FC01329713821282A0915D06B09163
:1040C0005E06ED0130E020E01097A1F420813181FF
:1040D000820F931F20915B0630915C0628173907E9
:1040E00009F061C0F0935C06E0935B06DF91CF912D
:1040F0000895EA01CE17DF07E8F54A815B819E014A
:1041000041155105B1F7E901FB83EA8349915991C2
:10411000C40FD51FEC17FD0761F4808191810296D1
:10412000840F951FE90199838883828193819B8302
:104130008A83F0E0E0E012968D919C9113970097AE
:10414000B9F52D913C911197CD010296820F931FE5
:1041500020915B0630915C062817390739F63097B5
:1041600051F510925E0610925D06B0935C06A09326
:104170005B06BCCFD383C28340815181840F951FDE
:10418000C817D90761F44E5F5F4F88819981480F46
:10419000591F518340838A819B8193838283211598
:1041A000310509F0B0CFF0935E06E0935D069ECF37
:1041B000FD01DC01C0CF13821282D7CFB0E0A0E0B6
:1041C000E4EEF0E20C94101E8C01009751F4CB0148
:1041D0000E94B91F8C01C801CDB7DEB7E0E10C9495
:1041E0002C1EFC01E60FF71F9C0122503109E2173B
:1041F000F30708F49DC0D901CD91DC911197C61742
:10420000D70798F0C530D10530F3CE010497861753
:10421000970708F3C61BD70B2297C193D1936D93D1
:104220007C93CF010E945520D6CF5B01AC1ABD0A0A
:104230004C018C0E9D1EA0915D06B0915E06512C26
:10424000412CF12CE12C109731F580915B06909177
:104250005C068815990509F05CC04616570608F0FB
:1042600058C08091210190912201009741F48DB7AF
:104270009EB74091250150912601841B950BE817AC
:10428000F90708F055C0F0935C06E0935B06F9016E
:1042900071836083A0CF8D919C91119712966C9041
:1042A000129713967C901397A815B90559F56C01D0
:1042B00042E0C40ED11CCA14DB0420F1AC014A193F
:1042C0005B09DA011296159780F06282738251833E
:1042D0004083D9016D937C93E114F10471F0D7010F
:1042E0001396FC93EE93129776CF22968C0F9D1F18
:1042F000F90191838083F301EFCFF0935E06E093A1
:104300005D0669CF4816590608F42C017D01D301DA
:104310009ACFCB010E94B91F7C01009749F0AE01F2
:10432000B8010E949B21C8010E945520870153CFEC
:1043300010E000E050CFFB01DC0102C001900D92C3
:1043400041505040D8F70895FB01DC018D91019058
:1043500080190110D9F3990B0895FB01DC0101903C
:104360000D920020E1F70895FB01DC01415050401F
:1043700030F08D910190801919F40020B9F7881B55
:10438000990B0895FB0151915523A9F0BF01DC0160
:104390004D9145174111E1F759F4CD0101900020ED
:1043A00049F04D9140154111C9F3FB014111EFCF87
:1043B00081E090E001970895AEE0B0E0E2EEF1E236
:1043C0000C941C1E0D891E8986E08C831A83098338
:1043D0008FEF9FE79E838D83AE01475E5F4F6F89AE
:1043E000788DCE0101960E94FF212F813885020F22
:1043F000131FF80110822E96E4E00C94381EABE0F7
:10440000B0E0E5E0F2E20C940E1E7C013B018A0173
:10441000FC0117821682838181FFC8C1CE010196FB
:104420005C01F7019381F30193FD859193FF8191E5
:104430003F01882309F453C1853239F493FD8591F6
:1044400093FF81913F01853229F4B70190E00E94EA
:10445000EF23E7CF912C212C312CFFE1F31538F01D
:104460008B3211F190F4803209F1833229F137FC5B
:104470003CC020ED280F2A3050F536FE20C08AE0DF
:10448000989E200D1124922E06C08D3291F080331B
:1044900071F7689430F8F30193FD859193FF819152
:1044A0003F018111DACF21C0689431F8689432F865
:1044B000F2CF689433F8EFCF689434F8ECCFEAE0A9
:1044C0002E9E200D1124222E689435F8E4CF8E32D2
:1044D00029F436FC04C1689436F8DDCF8C3619F423
:1044E000689437F8D8CF8836B1F2982F9F7D9554CD
:1044F0009330E0F08336A1F18337C1F1833509F0C1
:1045000063C02801F2E04F0E511CF801C080D18039
:10451000692D70E036FC02C06FEF7FEFC6010E948C
:10452000D9234C01689437F882010AC00C5F1F4FF1
:10453000FFE3F98388248394912C6501E89437F88C
:1045400033FE2DC0522C8114910471F5552009F4CD
:1045500068CFB70180E290E00E94EF235A94F6CF33
:10456000F801808189830E5F1F4FE4CF2801F2E0BC
:104570004F0E511CF801C080D180692D70E036FCCF
:1045800002C06FEF7FEFC6010E94E4234C0182015D
:10459000D5CFB70180E290E00E94EF232A9428143F
:1045A000190409F0B0F7CECFF60137FC859137FE3C
:1045B00081916F01B70190E00E94EF2351105A944E
:1045C000F1E08F1A9108BFCF843619F0893609F0CF
:1045D00077C0F80137FE6BC0608171818281938161
:1045E0000C5F1F4FF32DFF763F2E97FF09C090956C
:1045F0008095709561957F4F8F4F9F4F689437F8E6
:104600002AE030E0A5010E941F24C82ECA188C2C75
:10461000432C36FE0CC0E89440F8C91440F434FE34
:1046200005C032FC03C0F32DFE7E4F2E892C44FEC4
:1046300095C0FE01EC0DF11D8081803309F087C02B
:10464000242D297E422E842D8870582E43FC95C03F
:1046500040FE8FC09C2C821418F42C0C922C9818BD
:1046600044FE91C0B70180E390E00E94EF2342FE38
:1046700009C088E790E041FE02C088E590E0B701FC
:104680000E94EF23C91408F48AC0CA94D12C9FEF6A
:10469000C91AD90ACA0CDB1CF60182916F01B70155
:1046A00090E00E94EF23AC14BD04B1F74FCF6081BE
:1046B0007181072E000C880B990B0E5F1F4F92CF54
:1046C000D32CE894D4F82AE030E0853739F1232D53
:1046D000297FD22E8F3601F148F48835A9F0F701F1
:1046E000868197812B96E2E10C942A1E803749F04F
:1046F0008837A9F7D4FE02C06894D2F820E130E0F0
:104700000DC06894D4F8F6CF34FE03C0822F8660C3
:10471000D82E20E132E002C028E030E0F801D7FED8
:104720000FC060817181828193810C5F1F4FA50151
:104730000E941F24C82ECA183D2CE89437F867CF72
:104740006081718190E080E00E5F1F4FF0CF42FCEE
:1047500002C0839478CF8394839475CF842D867818
:1047600009F471CFF6CFB70180E290E00E94EF2309
:1047700083948214C0F3512C73CF522C5818821496
:1047800008F46ECFF8CF842D867809F47BCF8BE2C6
:1047900041FE80E247FC8DE2B70190E071CFB701A6
:1047A00080E390E00E94EF239A946CCF8FEF9FEF0D
:1047B00099CFFC010590615070400110D8F78095A9
:1047C00090958E0F9F1F0895FC01615070400190DD
:1047D0000110D8F7809590958E0F9F1F08950F9325
:1047E0001F93CF93DF93182F092FEB018B8181FD4E
:1047F00009C01FEF0FEF812F902FDF91CF911F91F5
:104800000F91089582FF14C02E813F818C819D817C
:10481000281739073CF4E881F981CF010196998383
:10482000888310838E819F8101969F838E83E3CF3F
:10483000E885F985812F0995892BA1F3DACFFA0153
:10484000AA27283051F1203181F1E8946F936E7FCF
:104850006E5F7F4F8F4F9F4FAF4FB1E03ED0B4E0C0
:104860003CD0670F781F891F9A1FA11D680F791F01
:104870008A1F911DA11D6A0F711D811D911DA11D12
:1048800020D009F468943F912AE0269F1124301922
:10489000305D3193DEF6CF010895462F4770405DBD
:1048A0004193B3E00FD0C9F7F6CF462F4F70405D6C
:1048B0004A3318F0495D31FD4052419302D0A9F7C7
:1048C000EACFB4E0A6959795879577956795BA95C1
:1048D000C9F700976105710508959B01AC010A2E87
:1048E00006945795479537952795BA95C9F7620F5E
:1048F000731F841F951FA01D089510E0CFE6D0E020
:1049000004C0FE010E949E1E2196C037D107C9F740
:04491000F894FFCF49
:10491400011F11111F1F1F1F0202061F1F1E0E0E53
:10492400000000001F1F1F1F1F1F1F1F000000008B
:10493400FF00005F06800000004000140054004D9A
:104944004474726F6E697800000000005101240104
:104954001407FA001D010A01FB00000000007104A5
:10496400D103FE03D9042F040D0421040000000028
:104974008D07D10314071307000000001105D103AC
:104984001407FA006D058505F9040D0A00250024B5
:104994004C6576656C3A002444697374616E636592
:1049A4003A00244D6F64653A002453797374656D3D
:1049B4003A0041004D004C763A007C00523A004DDA
:1049C4004F66663A004D6F746F4D6F64653A0044EC
:1049D400697374583A004F4E20004F464600202019
:1049E4004155544F004D414E55414C006F66660091
:1049F400352E39650053573A200031333A30303A76
:104A04003534004A756C203137203230323100445D
:104A1400543A2000207C20004D617844697374610D
:104A24006E63653A20004D696E44697374616E6308
:104A3400653A200073746172742061743A20004DE9
:104A4400616E75616C4F66663A20004D6F746F72CB
:104A540053746174653A20004D6F64653A200076A2
:104A640000332E310048573A2573004C3A25642010
:104A7400483A256420503A256400550050554D505D
:104A84002054595045204552524F522000736574AA
:104A94002070756D70207479706520202000747505
:104AA400726E696E67206D6F746F72206F6E002472
:104AB4006D696E44697374616E636500246D617819
:104AC40044697374616E6365002473746172744124
:104AD40074002450756D703A0050554D503A004D95
:104AE4006F746F725374617465204368616E676597
:104AF40064004552524F52004452592D52554E00B3
:104B040024006D696E44697374616E636520736516
:104B1400743A006D617844697374616E63652073DF
:104B240065743A007374617274206D6F746F7220CF
:104B340061743A20002450756D70006D6F746F724B
:104B44003A20002477696669005769466920436FF3
:104B54006E6E6563746564005769466920446973C1
:104B6400636F6E6E6563746564002472656164537B
:104B7400657474696E670067657420436F646500CB
:00000001FF
